{
  "contractName": "AllograftManagement",
  "abi": [
    {
      "inputs": [],
      "stateMutability": "nonpayable",
      "type": "constructor"
    },
    {
      "anonymous": false,
      "inputs": [
        {
          "indexed": false,
          "internalType": "uint256",
          "name": "donorId",
          "type": "uint256"
        }
      ],
      "name": "DonationCompleted",
      "type": "event"
    },
    {
      "anonymous": false,
      "inputs": [
        {
          "indexed": false,
          "internalType": "uint256",
          "name": "donorId",
          "type": "uint256"
        }
      ],
      "name": "DonorAdded",
      "type": "event"
    },
    {
      "anonymous": false,
      "inputs": [
        {
          "indexed": false,
          "internalType": "uint256",
          "name": "donorId",
          "type": "uint256"
        }
      ],
      "name": "DonorVerified",
      "type": "event"
    },
    {
      "anonymous": false,
      "inputs": [
        {
          "indexed": false,
          "internalType": "uint256",
          "name": "donorId",
          "type": "uint256"
        },
        {
          "indexed": false,
          "internalType": "uint256",
          "name": "patientId",
          "type": "uint256"
        }
      ],
      "name": "MatchFound",
      "type": "event"
    },
    {
      "anonymous": false,
      "inputs": [
        {
          "indexed": false,
          "internalType": "uint256",
          "name": "organId",
          "type": "uint256"
        },
        {
          "indexed": false,
          "internalType": "string",
          "name": "status",
          "type": "string"
        }
      ],
      "name": "OrganDelivered",
      "type": "event"
    },
    {
      "anonymous": false,
      "inputs": [
        {
          "indexed": false,
          "internalType": "uint256",
          "name": "patientId",
          "type": "uint256"
        }
      ],
      "name": "PatientAdded",
      "type": "event"
    },
    {
      "anonymous": false,
      "inputs": [
        {
          "indexed": false,
          "internalType": "uint256",
          "name": "patientId",
          "type": "uint256"
        }
      ],
      "name": "PatientVerified",
      "type": "event"
    },
    {
      "anonymous": false,
      "inputs": [
        {
          "indexed": true,
          "internalType": "bytes32",
          "name": "role",
          "type": "bytes32"
        },
        {
          "indexed": true,
          "internalType": "bytes32",
          "name": "previousAdminRole",
          "type": "bytes32"
        },
        {
          "indexed": true,
          "internalType": "bytes32",
          "name": "newAdminRole",
          "type": "bytes32"
        }
      ],
      "name": "RoleAdminChanged",
      "type": "event"
    },
    {
      "anonymous": false,
      "inputs": [
        {
          "indexed": true,
          "internalType": "bytes32",
          "name": "role",
          "type": "bytes32"
        },
        {
          "indexed": true,
          "internalType": "address",
          "name": "account",
          "type": "address"
        },
        {
          "indexed": true,
          "internalType": "address",
          "name": "sender",
          "type": "address"
        }
      ],
      "name": "RoleGranted",
      "type": "event"
    },
    {
      "anonymous": false,
      "inputs": [
        {
          "indexed": true,
          "internalType": "bytes32",
          "name": "role",
          "type": "bytes32"
        },
        {
          "indexed": true,
          "internalType": "address",
          "name": "account",
          "type": "address"
        },
        {
          "indexed": true,
          "internalType": "address",
          "name": "sender",
          "type": "address"
        }
      ],
      "name": "RoleRevoked",
      "type": "event"
    },
    {
      "anonymous": false,
      "inputs": [
        {
          "indexed": false,
          "internalType": "uint256",
          "name": "patientId",
          "type": "uint256"
        }
      ],
      "name": "TransplantCompleted",
      "type": "event"
    },
    {
      "inputs": [],
      "name": "DEFAULT_ADMIN_ROLE",
      "outputs": [
        {
          "internalType": "bytes32",
          "name": "",
          "type": "bytes32"
        }
      ],
      "stateMutability": "view",
      "type": "function",
      "constant": true
    },
    {
      "inputs": [],
      "name": "DOCTOR_ROLE",
      "outputs": [
        {
          "internalType": "bytes32",
          "name": "",
          "type": "bytes32"
        }
      ],
      "stateMutability": "view",
      "type": "function",
      "constant": true
    },
    {
      "inputs": [],
      "name": "DONOR_SURGEON_ROLE",
      "outputs": [
        {
          "internalType": "bytes32",
          "name": "",
          "type": "bytes32"
        }
      ],
      "stateMutability": "view",
      "type": "function",
      "constant": true
    },
    {
      "inputs": [],
      "name": "MATCHING_ORGANIZER_ROLE",
      "outputs": [
        {
          "internalType": "bytes32",
          "name": "",
          "type": "bytes32"
        }
      ],
      "stateMutability": "view",
      "type": "function",
      "constant": true
    },
    {
      "inputs": [],
      "name": "PROCUREMENT_TEAM_ROLE",
      "outputs": [
        {
          "internalType": "bytes32",
          "name": "",
          "type": "bytes32"
        }
      ],
      "stateMutability": "view",
      "type": "function",
      "constant": true
    },
    {
      "inputs": [],
      "name": "TRANSPLANT_SURGEON_ROLE",
      "outputs": [
        {
          "internalType": "bytes32",
          "name": "",
          "type": "bytes32"
        }
      ],
      "stateMutability": "view",
      "type": "function",
      "constant": true
    },
    {
      "inputs": [],
      "name": "TRANSPLANT_TEAM_ROLE",
      "outputs": [
        {
          "internalType": "bytes32",
          "name": "",
          "type": "bytes32"
        }
      ],
      "stateMutability": "view",
      "type": "function",
      "constant": true
    },
    {
      "inputs": [],
      "name": "TRANSPORTER_ROLE",
      "outputs": [
        {
          "internalType": "bytes32",
          "name": "",
          "type": "bytes32"
        }
      ],
      "stateMutability": "view",
      "type": "function",
      "constant": true
    },
    {
      "inputs": [
        {
          "internalType": "uint256",
          "name": "",
          "type": "uint256"
        }
      ],
      "name": "deliveryList",
      "outputs": [
        {
          "internalType": "uint256",
          "name": "",
          "type": "uint256"
        }
      ],
      "stateMutability": "view",
      "type": "function",
      "constant": true
    },
    {
      "inputs": [
        {
          "internalType": "uint256",
          "name": "",
          "type": "uint256"
        }
      ],
      "name": "donationInfo",
      "outputs": [
        {
          "internalType": "uint256",
          "name": "donorId",
          "type": "uint256"
        },
        {
          "internalType": "uint256",
          "name": "timestamp",
          "type": "uint256"
        },
        {
          "internalType": "bool",
          "name": "completed",
          "type": "bool"
        }
      ],
      "stateMutability": "view",
      "type": "function",
      "constant": true
    },
    {
      "inputs": [
        {
          "internalType": "uint256",
          "name": "",
          "type": "uint256"
        }
      ],
      "name": "donationSurgeryWaitingList",
      "outputs": [
        {
          "internalType": "uint256",
          "name": "",
          "type": "uint256"
        }
      ],
      "stateMutability": "view",
      "type": "function",
      "constant": true
    },
    {
      "inputs": [
        {
          "internalType": "uint256",
          "name": "",
          "type": "uint256"
        }
      ],
      "name": "donorWaitingList",
      "outputs": [
        {
          "internalType": "uint256",
          "name": "",
          "type": "uint256"
        }
      ],
      "stateMutability": "view",
      "type": "function",
      "constant": true
    },
    {
      "inputs": [
        {
          "internalType": "uint256",
          "name": "",
          "type": "uint256"
        }
      ],
      "name": "donors",
      "outputs": [
        {
          "internalType": "uint256",
          "name": "id",
          "type": "uint256"
        },
        {
          "internalType": "uint256",
          "name": "age",
          "type": "uint256"
        },
        {
          "internalType": "uint256",
          "name": "bmi",
          "type": "uint256"
        },
        {
          "internalType": "string",
          "name": "bloodGroup",
          "type": "string"
        },
        {
          "internalType": "string",
          "name": "organDonated",
          "type": "string"
        },
        {
          "internalType": "bool",
          "name": "verified",
          "type": "bool"
        }
      ],
      "stateMutability": "view",
      "type": "function",
      "constant": true
    },
    {
      "inputs": [
        {
          "internalType": "bytes32",
          "name": "role",
          "type": "bytes32"
        }
      ],
      "name": "getRoleAdmin",
      "outputs": [
        {
          "internalType": "bytes32",
          "name": "",
          "type": "bytes32"
        }
      ],
      "stateMutability": "view",
      "type": "function",
      "constant": true
    },
    {
      "inputs": [
        {
          "internalType": "bytes32",
          "name": "role",
          "type": "bytes32"
        },
        {
          "internalType": "address",
          "name": "account",
          "type": "address"
        }
      ],
      "name": "grantRole",
      "outputs": [],
      "stateMutability": "nonpayable",
      "type": "function"
    },
    {
      "inputs": [
        {
          "internalType": "bytes32",
          "name": "role",
          "type": "bytes32"
        },
        {
          "internalType": "address",
          "name": "account",
          "type": "address"
        }
      ],
      "name": "hasRole",
      "outputs": [
        {
          "internalType": "bool",
          "name": "",
          "type": "bool"
        }
      ],
      "stateMutability": "view",
      "type": "function",
      "constant": true
    },
    {
      "inputs": [
        {
          "internalType": "uint256",
          "name": "",
          "type": "uint256"
        }
      ],
      "name": "organStatus",
      "outputs": [
        {
          "internalType": "uint256",
          "name": "organId",
          "type": "uint256"
        },
        {
          "internalType": "string",
          "name": "status",
          "type": "string"
        }
      ],
      "stateMutability": "view",
      "type": "function",
      "constant": true
    },
    {
      "inputs": [
        {
          "internalType": "uint256",
          "name": "",
          "type": "uint256"
        }
      ],
      "name": "patientToDonor",
      "outputs": [
        {
          "internalType": "uint256",
          "name": "",
          "type": "uint256"
        }
      ],
      "stateMutability": "view",
      "type": "function",
      "constant": true
    },
    {
      "inputs": [
        {
          "internalType": "uint256",
          "name": "",
          "type": "uint256"
        }
      ],
      "name": "patientWaitingList",
      "outputs": [
        {
          "internalType": "uint256",
          "name": "",
          "type": "uint256"
        }
      ],
      "stateMutability": "view",
      "type": "function",
      "constant": true
    },
    {
      "inputs": [
        {
          "internalType": "uint256",
          "name": "",
          "type": "uint256"
        }
      ],
      "name": "patients",
      "outputs": [
        {
          "internalType": "uint256",
          "name": "id",
          "type": "uint256"
        },
        {
          "internalType": "uint256",
          "name": "age",
          "type": "uint256"
        },
        {
          "internalType": "uint256",
          "name": "bmi",
          "type": "uint256"
        },
        {
          "internalType": "string",
          "name": "bloodGroup",
          "type": "string"
        },
        {
          "internalType": "string",
          "name": "organNeeded",
          "type": "string"
        },
        {
          "internalType": "bool",
          "name": "verified",
          "type": "bool"
        }
      ],
      "stateMutability": "view",
      "type": "function",
      "constant": true
    },
    {
      "inputs": [
        {
          "internalType": "bytes32",
          "name": "role",
          "type": "bytes32"
        },
        {
          "internalType": "address",
          "name": "account",
          "type": "address"
        }
      ],
      "name": "renounceRole",
      "outputs": [],
      "stateMutability": "nonpayable",
      "type": "function"
    },
    {
      "inputs": [
        {
          "internalType": "bytes32",
          "name": "role",
          "type": "bytes32"
        },
        {
          "internalType": "address",
          "name": "account",
          "type": "address"
        }
      ],
      "name": "revokeRole",
      "outputs": [],
      "stateMutability": "nonpayable",
      "type": "function"
    },
    {
      "inputs": [
        {
          "internalType": "bytes4",
          "name": "interfaceId",
          "type": "bytes4"
        }
      ],
      "name": "supportsInterface",
      "outputs": [
        {
          "internalType": "bool",
          "name": "",
          "type": "bool"
        }
      ],
      "stateMutability": "view",
      "type": "function",
      "constant": true
    },
    {
      "inputs": [
        {
          "internalType": "uint256",
          "name": "",
          "type": "uint256"
        }
      ],
      "name": "transplantInfo",
      "outputs": [
        {
          "internalType": "uint256",
          "name": "patientId",
          "type": "uint256"
        },
        {
          "internalType": "uint256",
          "name": "timestamp",
          "type": "uint256"
        },
        {
          "internalType": "bool",
          "name": "completed",
          "type": "bool"
        }
      ],
      "stateMutability": "view",
      "type": "function",
      "constant": true
    },
    {
      "inputs": [
        {
          "internalType": "uint256",
          "name": "",
          "type": "uint256"
        }
      ],
      "name": "transplantWaitingList",
      "outputs": [
        {
          "internalType": "uint256",
          "name": "",
          "type": "uint256"
        }
      ],
      "stateMutability": "view",
      "type": "function",
      "constant": true
    },
    {
      "inputs": [
        {
          "internalType": "uint256",
          "name": "_id",
          "type": "uint256"
        },
        {
          "internalType": "uint256",
          "name": "_age",
          "type": "uint256"
        },
        {
          "internalType": "uint256",
          "name": "_bmi",
          "type": "uint256"
        },
        {
          "internalType": "string",
          "name": "_bloodGroup",
          "type": "string"
        },
        {
          "internalType": "string",
          "name": "_organNeeded",
          "type": "string"
        }
      ],
      "name": "addPatient",
      "outputs": [],
      "stateMutability": "nonpayable",
      "type": "function"
    },
    {
      "inputs": [
        {
          "internalType": "uint256",
          "name": "_id",
          "type": "uint256"
        }
      ],
      "name": "verifyPatient",
      "outputs": [],
      "stateMutability": "nonpayable",
      "type": "function"
    },
    {
      "inputs": [
        {
          "internalType": "uint256",
          "name": "_id",
          "type": "uint256"
        },
        {
          "internalType": "uint256",
          "name": "_age",
          "type": "uint256"
        },
        {
          "internalType": "uint256",
          "name": "_bmi",
          "type": "uint256"
        },
        {
          "internalType": "string",
          "name": "_bloodGroup",
          "type": "string"
        },
        {
          "internalType": "string",
          "name": "_organDonated",
          "type": "string"
        }
      ],
      "name": "addDonor",
      "outputs": [],
      "stateMutability": "nonpayable",
      "type": "function"
    },
    {
      "inputs": [
        {
          "internalType": "uint256",
          "name": "_id",
          "type": "uint256"
        }
      ],
      "name": "verifyDonor",
      "outputs": [],
      "stateMutability": "nonpayable",
      "type": "function"
    },
    {
      "inputs": [
        {
          "internalType": "uint256",
          "name": "donorId",
          "type": "uint256"
        },
        {
          "internalType": "uint256",
          "name": "minAge",
          "type": "uint256"
        },
        {
          "internalType": "uint256",
          "name": "maxAge",
          "type": "uint256"
        },
        {
          "internalType": "uint256",
          "name": "minBMI",
          "type": "uint256"
        },
        {
          "internalType": "uint256",
          "name": "maxBMI",
          "type": "uint256"
        }
      ],
      "name": "matchPatientDonor",
      "outputs": [],
      "stateMutability": "nonpayable",
      "type": "function"
    },
    {
      "inputs": [
        {
          "internalType": "uint256",
          "name": "donorId",
          "type": "uint256"
        }
      ],
      "name": "donationSurgery",
      "outputs": [],
      "stateMutability": "nonpayable",
      "type": "function"
    },
    {
      "inputs": [
        {
          "internalType": "uint256",
          "name": "organId",
          "type": "uint256"
        }
      ],
      "name": "deliverOrgan",
      "outputs": [],
      "stateMutability": "nonpayable",
      "type": "function"
    },
    {
      "inputs": [
        {
          "internalType": "uint256",
          "name": "organId",
          "type": "uint256"
        },
        {
          "internalType": "uint256",
          "name": "patientId",
          "type": "uint256"
        }
      ],
      "name": "confirmOrganReceived",
      "outputs": [],
      "stateMutability": "nonpayable",
      "type": "function"
    },
    {
      "inputs": [
        {
          "internalType": "uint256",
          "name": "patientId",
          "type": "uint256"
        }
      ],
      "name": "transplantSurgery",
      "outputs": [],
      "stateMutability": "nonpayable",
      "type": "function"
    },
    {
      "inputs": [],
      "name": "getWaitingLists",
      "outputs": [
        {
          "internalType": "uint256[]",
          "name": "",
          "type": "uint256[]"
        },
        {
          "internalType": "uint256[]",
          "name": "",
          "type": "uint256[]"
        }
      ],
      "stateMutability": "view",
      "type": "function",
      "constant": true
    }
  ],
  "bytecode": "0x608060405234801561001057600080fd5b5061001c600033610021565b6100c0565b6000828152602081815260408083206001600160a01b038516845290915290205460ff166100bc576000828152602081815260408083206001600160a01b03851684529091529020805460ff1916600117905561007b3390565b6001600160a01b0316816001600160a01b0316837f2f8788117e7eff1d82e926ec794901d17c78024a50270940304540a733656f0d60405160405180910390a45b5050565b611fae806100cf6000396000f3fe608060405234801561001057600080fd5b50600436106102115760003560e01c80638c4b773d11610125578063b0e4c21d116100ad578063d547741f1161007c578063d547741f14610569578063ea267e2c1461057c578063ece4258a1461058f578063fc19dff8146105a2578063fec331f2146105c957600080fd5b8063b0e4c21d146104fb578063b4364f521461050e578063bff7b1e01461052f578063d1af545f1461054257600080fd5b80639c92f67c116100f45780639c92f67c14610486578063a217fddf146104a6578063a8b6bb0c146104ae578063ab954619146104c1578063ada2bcd6146104d457600080fd5b80638c4b773d1461043a57806391d148541461044d57806393119a83146104605780639a8faaf71461047357600080fd5b806336568abe116101a85780634abfa163116101775780634abfa163146103b55780634e8ebf68146103da5780634eabbe77146103ed578063517b65e214610414578063615e05e71461042757600080fd5b806336568abe1461033657806339267b23146103495780633d6c05071461035c57806346bf5cc21461038e57600080fd5b8063248a9ca3116101e4578063248a9ca31461029e5780632a64384a146102c15780632f2ff15d146102d457806332e0cc98146102e757600080fd5b806301ffc9a71461021657806302f5764c1461023e57806312f89329146102735780631f50c3de14610288575b600080fd5b610229610224366004611985565b6105f0565b60405190151581526020015b60405180910390f35b6102657fad5187b547fc39f883f5f7ea55567a8f5b1b1e3fc86dcc2339112c6e98c1e31681565b604051908152602001610235565b6102866102813660046119af565b610627565b005b610290610754565b604051610235929190611a03565b6102656102ac3660046119af565b60009081526020819052604090206001015490565b6102866102cf3660046119af565b610807565b6102866102e2366004611a31565b6108a9565b6103196102f53660046119af565b60056020526000908152604090208054600182015460029092015490919060ff1683565b604080519384526020840192909252151590820152606001610235565b610286610344366004611a31565b6108d3565b6102656103573660046119af565b610956565b61031961036a3660046119af565b60046020526000908152604090208054600182015460029092015490919060ff1683565b6102657f94aa36ffadce722c941f4dc8375d354ae510d44b54affee61e439db7c5161abb81565b6103c86103c33660046119af565b610977565b60405161023596959493929190611abd565b6102866103e8366004611bad565b610ac1565b6102657fddaa901e2fe3bda354fe0ede2785152d5c109282a613fe024a056a3e66c41bb381565b6102656104223660046119af565b610bbe565b6102866104353660046119af565b610bce565b6102866104483660046119af565b610d38565b61022961045b366004611a31565b610de1565b6103c861046e3660046119af565b610e0a565b6102656104813660046119af565b610e39565b6102656104943660046119af565b60036020526000908152604090205481565b610265600081565b6102866104bc366004611bad565b610e49565b6102866104cf366004611c2e565b610f3b565b6102657f3a2bbb0133dd248ac8b258a9013b57b1a619a432220ad707cf290c2623dd12db81565b610286610509366004611c69565b6113e8565b61052161051c3660046119af565b6114ea565b604051610235929190611c8b565b61026561053d3660046119af565b61158f565b6102657f760c769645c65df9de0920cc50cde73ba481a9559c5b7eea9af5f29066eea76981565b610286610577366004611a31565b61159f565b61028661058a3660046119af565b6115c4565b61026561059d3660046119af565b611671565b6102657fc296822b5e3b52c83b0c4019d03bbb2519ee10e42e83d79522fd7f01677d44cb81565b6102657f0af1dac7dea2fd7f7738119cec7df099dfad49aa9d2e7d17ba6b60f63ae7411f81565b60006001600160e01b03198216637965db0b60e01b148061062157506301ffc9a760e01b6001600160e01b03198316145b92915050565b7fc296822b5e3b52c83b0c4019d03bbb2519ee10e42e83d79522fd7f01677d44cb61065181611681565b60408051606081018252838152426020808301918252600183850181815260008881526004845286812095518655935185830155516002909401805460ff19169415159490941790935583518085018552868152845180860186526005815264526561647960d81b8184015281830190815287845260069092529390912083518155905190918201906106e49082611d34565b5050600a80546001810182556000919091527fc65a7bb8d6351c1cf70c95a316cc6a92839c986682d98bc35f958f4883f9d2a801839055506040518281527f0a46ef015e987bdeb483671b12c71a7a5cd31c4547a78f557df14386435ded18906020015b60405180910390a15050565b60608060076008818054806020026020016040519081016040528092919081815260200182805480156107a657602002820191906000526020600020905b815481526020019060010190808311610792575b50505050509150808054806020026020016040519081016040528092919081815260200182805480156107f857602002820191906000526020600020905b8154815260200190600101908083116107e4575b50505050509050915091509091565b7f3a2bbb0133dd248ac8b258a9013b57b1a619a432220ad707cf290c2623dd12db61083181611681565b6040805160608101825283815242602080830191825260018385018181526000888152600584528690209451855592519084015590516002909201805460ff19169215159290921790915590518381527f18648a4042fb294f0504d412c6bf73b09f97b20adced4fc065b47f899f194d8c9101610748565b6000828152602081905260409020600101546108c481611681565b6108ce838361168e565b505050565b6001600160a01b03811633146109485760405162461bcd60e51b815260206004820152602f60248201527f416363657373436f6e74726f6c3a2063616e206f6e6c792072656e6f756e636560448201526e103937b632b9903337b91039b2b63360891b60648201526084015b60405180910390fd5b6109528282611712565b5050565b600b818154811061096657600080fd5b600091825260209091200154905081565b6002602081905260009182526040909120805460018201549282015460038301805492949391926109a790611cac565b80601f01602080910402602001604051908101604052809291908181526020018280546109d390611cac565b8015610a205780601f106109f557610100808354040283529160200191610a20565b820191906000526020600020905b815481529060010190602001808311610a0357829003601f168201915b505050505090806004018054610a3590611cac565b80601f0160208091040260200160405190810160405280929190818152602001828054610a6190611cac565b8015610aae5780601f10610a8357610100808354040283529160200191610aae565b820191906000526020600020905b815481529060010190602001808311610a9157829003601f168201915b5050506005909301549192505060ff1686565b7f0af1dac7dea2fd7f7738119cec7df099dfad49aa9d2e7d17ba6b60f63ae7411f610aeb81611681565b6040805160c08101825287815260208082018881528284018881526060840188815260808501889052600060a086018190528c8152600294859052959095208451815591516001830155519181019190915591519091906003820190610b519082611d34565b5060808201516004820190610b669082611d34565b5060a091909101516005909101805460ff19169115159190911790556040518681527f9b62b4d9700061a8ae0ae2013f0c614170450ad05c744c7619878c0fcebdf127906020015b60405180910390a1505050505050565b600a818154811061096657600080fd5b7fddaa901e2fe3bda354fe0ede2785152d5c109282a613fe024a056a3e66c41bb3610bf881611681565b604080518082018252600981526811195b1a5d995c995960ba1b6020918201526000848152600690915281902090517f84d438931365e92021ed104a3ccc6ebb11094926f21ebfcbd81ad9746006c51091610c5891600190910190611df4565b604051809103902003610ca15760405162461bcd60e51b8152602060048201526011602482015270105b1c9958591e4819195b1a5d995c9959607a1b604482015260640161093f565b6040518060400160405280600981526020016811195b1a5d995c995960ba1b815250600660008481526020019081526020016000206001019081610ce59190611d34565b507f99bfc81c08c3bdabc5e7aaed177e2bd12b1864fced78324bd8730e805d9f98b6826040516107489181526040602082018190526009908201526811195b1a5d995c995960ba1b606082015260800190565b7f94aa36ffadce722c941f4dc8375d354ae510d44b54affee61e439db7c5161abb610d6281611681565b6000828152600160208190526040808320600501805460ff1916831790556007805492830181559092527fa66cc928b5edb82af9bd49922954155ab7b0942694bea4ce44661d9a8736c68801839055517f25ab8782b060b71baea6f8bf3f4b4059498ebccc82de48934293b8a0e73f4d12906107489084815260200190565b6000918252602082815260408084206001600160a01b0393909316845291905290205460ff1690565b60016020819052600091825260409091208054918101546002820154600383018054929391926109a790611cac565b6009818154811061096657600080fd5b7f0af1dac7dea2fd7f7738119cec7df099dfad49aa9d2e7d17ba6b60f63ae7411f610e7381611681565b6040805160c08101825287815260208082018881528284018881526060840188815260808501889052600060a086018190528c815260019485905295909520845181559151928201929092559051600282015591519091906003820190610eda9082611d34565b5060808201516004820190610eef9082611d34565b5060a091909101516005909101805460ff19169115159190911790556040518681527faed33e54b4b0bc174eb213d3e5090df6d7807f8e6ffda1c83b13657cb7fe6ea590602001610bae565b7f760c769645c65df9de0920cc50cde73ba481a9559c5b7eea9af5f29066eea769610f6581611681565b6000600260008881526020019081526020016000206040518060c0016040529081600082015481526020016001820154815260200160028201548152602001600382018054610fb390611cac565b80601f0160208091040260200160405190810160405280929190818152602001828054610fdf90611cac565b801561102c5780601f106110015761010080835404028352916020019161102c565b820191906000526020600020905b81548152906001019060200180831161100f57829003601f168201915b5050505050815260200160048201805461104590611cac565b80601f016020809104026020016040519081016040528092919081815260200182805461107190611cac565b80156110be5780601f10611093576101008083540402835291602001916110be565b820191906000526020600020905b8154815290600101906020018083116110a157829003601f168201915b50505091835250506005919091015460ff16151560209091015260a08101519091506111215760405162461bcd60e51b8152602060048201526012602482015271111bdb9bdc881b9bdd081d995c9a599a595960721b604482015260640161093f565b60005b6007548110156113de5760006007828154811061114357611143611e6a565b906000526020600020015490506000600160008381526020019081526020016000206040518060c001604052908160008201548152602001600182015481526020016002820154815260200160038201805461119e90611cac565b80601f01602080910402602001604051908101604052809291908181526020018280546111ca90611cac565b80156112175780601f106111ec57610100808354040283529160200191611217565b820191906000526020600020905b8154815290600101906020018083116111fa57829003601f168201915b5050505050815260200160048201805461123090611cac565b80601f016020809104026020016040519081016040528092919081815260200182805461125c90611cac565b80156112a95780601f1061127e576101008083540402835291602001916112a9565b820191906000526020600020905b81548152906001019060200180831161128c57829003601f168201915b50505091835250506005919091015460ff1615156020918201526080808701518051908301209083015180519201919091209192501480156113005750836060015180519060200120816060015180519060200120145b8015611310575088816020015110155b8015611320575087816020015111155b8015611330575086816040015110155b8015611340575085816040015111155b156113c95760008281526003602090815260408083208d90556009805460018101825593527f6e1540171b6c0c960b71a7020d9f60077f6af931a8bbf590da0223dacf75c7af9092018c905581518c81529081018490527fa29c195317ce676fbbae11c2b9386d52819159b4adaa256f92dc3da60620f0b2910160405180910390a150506113de565b505080806113d690611e96565b915050611124565b5050505050505050565b7f94aa36ffadce722c941f4dc8375d354ae510d44b54affee61e439db7c5161abb61141281611681565b60405180604001604052806008815260200167149958d95a5d995960c21b8152506006600085815260200190815260200160002060010190816114559190611d34565b50600b80546001810182556000919091527f0175b7a638427703f0dbe7bb9bbf987a2551717b34e79f33b5b1008d1fa01db9018290556040517f99bfc81c08c3bdabc5e7aaed177e2bd12b1864fced78324bd8730e805d9f98b6906114dd9085815260406020820181905260089082015267149958d95a5d995960c21b606082015260800190565b60405180910390a1505050565b6006602052600090815260409020805460018201805491929161150c90611cac565b80601f016020809104026020016040519081016040528092919081815260200182805461153890611cac565b80156115855780601f1061155a57610100808354040283529160200191611585565b820191906000526020600020905b81548152906001019060200180831161156857829003601f168201915b5050505050905082565b6008818154811061096657600080fd5b6000828152602081905260409020600101546115ba81611681565b6108ce8383611712565b7fad5187b547fc39f883f5f7ea55567a8f5b1b1e3fc86dcc2339112c6e98c1e3166115ee81611681565b600082815260026020526040808220600501805460ff191660019081179091556008805491820181559092527ff3f7a9fe364faab93b216da50a3214154f22a0a2b415b23a84c8169e8b636ee3909101839055517fa649b5082c41a87e3563ea29e765fb657694a8d19b07a244db3b031f03d1f270906107489084815260200190565b6007818154811061096657600080fd5b61168b8133611777565b50565b6116988282610de1565b610952576000828152602081815260408083206001600160a01b03851684529091529020805460ff191660011790556116ce3390565b6001600160a01b0316816001600160a01b0316837f2f8788117e7eff1d82e926ec794901d17c78024a50270940304540a733656f0d60405160405180910390a45050565b61171c8282610de1565b15610952576000828152602081815260408083206001600160a01b0385168085529252808320805460ff1916905551339285917ff6391f5c32d9c69d2a47ea670b442974b53935d1edc7fd64eb21e047a839171b9190a45050565b6117818282610de1565b6109525761178e816117d0565b6117998360206117e2565b6040516020016117aa929190611eaf565b60408051601f198184030181529082905262461bcd60e51b825261093f91600401611f24565b60606106216001600160a01b03831660145b606060006117f1836002611f37565b6117fc906002611f4e565b67ffffffffffffffff81111561181457611814611b0a565b6040519080825280601f01601f19166020018201604052801561183e576020820181803683370190505b509050600360fc1b8160008151811061185957611859611e6a565b60200101906001600160f81b031916908160001a905350600f60fb1b8160018151811061188857611888611e6a565b60200101906001600160f81b031916908160001a90535060006118ac846002611f37565b6118b7906001611f4e565b90505b600181111561192f576f181899199a1a9b1b9c1cb0b131b232b360811b85600f16601081106118eb576118eb611e6a565b1a60f81b82828151811061190157611901611e6a565b60200101906001600160f81b031916908160001a90535060049490941c9361192881611f61565b90506118ba565b50831561197e5760405162461bcd60e51b815260206004820181905260248201527f537472696e67733a20686578206c656e67746820696e73756666696369656e74604482015260640161093f565b9392505050565b60006020828403121561199757600080fd5b81356001600160e01b03198116811461197e57600080fd5b6000602082840312156119c157600080fd5b5035919050565b600081518084526020808501945080840160005b838110156119f8578151875295820195908201906001016119dc565b509495945050505050565b604081526000611a1660408301856119c8565b8281036020840152611a2881856119c8565b95945050505050565b60008060408385031215611a4457600080fd5b8235915060208301356001600160a01b0381168114611a6257600080fd5b809150509250929050565b60005b83811015611a88578181015183820152602001611a70565b50506000910152565b60008151808452611aa9816020860160208601611a6d565b601f01601f19169290920160200192915050565b86815285602082015284604082015260c060608201526000611ae260c0830186611a91565b8281036080840152611af48186611a91565b91505082151560a0830152979650505050505050565b634e487b7160e01b600052604160045260246000fd5b600082601f830112611b3157600080fd5b813567ffffffffffffffff80821115611b4c57611b4c611b0a565b604051601f8301601f19908116603f01168101908282118183101715611b7457611b74611b0a565b81604052838152866020858801011115611b8d57600080fd5b836020870160208301376000602085830101528094505050505092915050565b600080600080600060a08688031215611bc557600080fd5b853594506020860135935060408601359250606086013567ffffffffffffffff80821115611bf257600080fd5b611bfe89838a01611b20565b93506080880135915080821115611c1457600080fd5b50611c2188828901611b20565b9150509295509295909350565b600080600080600060a08688031215611c4657600080fd5b505083359560208501359550604085013594606081013594506080013592509050565b60008060408385031215611c7c57600080fd5b50508035926020909101359150565b828152604060208201526000611ca46040830184611a91565b949350505050565b600181811c90821680611cc057607f821691505b602082108103611ce057634e487b7160e01b600052602260045260246000fd5b50919050565b601f8211156108ce57600081815260208120601f850160051c81016020861015611d0d5750805b601f850160051c820191505b81811015611d2c57828155600101611d19565b505050505050565b815167ffffffffffffffff811115611d4e57611d4e611b0a565b611d6281611d5c8454611cac565b84611ce6565b602080601f831160018114611d975760008415611d7f5750858301515b600019600386901b1c1916600185901b178555611d2c565b600085815260208120601f198616915b82811015611dc657888601518255948401946001909101908401611da7565b5085821015611de45787850151600019600388901b60f8161c191681555b5050505050600190811b01905550565b6000808354611e0281611cac565b60018281168015611e1a5760018114611e2f57611e5e565b60ff1984168752821515830287019450611e5e565b8760005260208060002060005b85811015611e555781548a820152908401908201611e3c565b50505082870194505b50929695505050505050565b634e487b7160e01b600052603260045260246000fd5b634e487b7160e01b600052601160045260246000fd5b600060018201611ea857611ea8611e80565b5060010190565b7f416363657373436f6e74726f6c3a206163636f756e7420000000000000000000815260008351611ee7816017850160208801611a6d565b7001034b99036b4b9b9b4b733903937b6329607d1b6017918401918201528351611f18816028840160208801611a6d565b01602801949350505050565b60208152600061197e6020830184611a91565b808202811582820484141761062157610621611e80565b8082018082111561062157610621611e80565b600081611f7057611f70611e80565b50600019019056fea2646970667358221220dbe5e3053f537108d01c2df05831647d5c9c135e32c69b5334ead2845f43a31664736f6c63430008130033",
  "immutableReferences": {},
  "source": "// SPDX-License-Identifier: MIT\r\npragma solidity ^0.8.0;\r\n\r\nimport \"@openzeppelin/contracts/access/AccessControl.sol\";\r\n\r\ncontract AllograftManagement is AccessControl {\r\n    bytes32 public constant DOCTOR_ROLE = keccak256(\"DOCTOR_ROLE\");\r\n    bytes32 public constant TRANSPLANT_TEAM_ROLE = keccak256(\"TRANSPLANT_TEAM_ROLE\");\r\n    bytes32 public constant PROCUREMENT_TEAM_ROLE = keccak256(\"PROCUREMENT_TEAM_ROLE\");\r\n    bytes32 public constant MATCHING_ORGANIZER_ROLE = keccak256(\"MATCHING_ORGANIZER_ROLE\");\r\n    bytes32 public constant DONOR_SURGEON_ROLE = keccak256(\"DONOR_SURGEON_ROLE\");\r\n    bytes32 public constant TRANSPORTER_ROLE = keccak256(\"TRANSPORTER_ROLE\");\r\n    bytes32 public constant TRANSPLANT_SURGEON_ROLE = keccak256(\"TRANSPLANT_SURGEON_ROLE\");\r\n\r\n    constructor() {\r\n        _grantRole(DEFAULT_ADMIN_ROLE, msg.sender);\r\n    }\r\n\r\n    // ---------------- STRUCTS ----------------\r\n    struct PatientInfo {\r\n        uint id;\r\n        uint age;\r\n        uint bmi;\r\n        string bloodGroup;\r\n        string organNeeded;\r\n        bool verified;\r\n    }\r\n\r\n    struct DonorInfo {\r\n        uint id;\r\n        uint age;\r\n        uint bmi;\r\n        string bloodGroup;\r\n        string organDonated;\r\n        bool verified;\r\n    }\r\n\r\n    struct DonationSurgeryInfo {\r\n        uint donorId;\r\n        uint timestamp;\r\n        bool completed;\r\n    }\r\n\r\n    struct TransplantSurgeryInfo {\r\n        uint patientId;\r\n        uint timestamp;\r\n        bool completed;\r\n    }\r\n\r\n    struct OrganStatus {\r\n        uint organId;\r\n        string status; // Ready, Delivered, Received, Transplanted\r\n    }\r\n\r\n    // ---------------- MAPPINGS ----------------\r\n    mapping(uint => PatientInfo) public patients;\r\n    mapping(uint => DonorInfo) public donors;\r\n    mapping(uint => uint) public patientToDonor; // Match mapping\r\n    mapping(uint => DonationSurgeryInfo) public donationInfo;\r\n    mapping(uint => TransplantSurgeryInfo) public transplantInfo;\r\n    mapping(uint => OrganStatus) public organStatus;\r\n\r\n    uint[] public patientWaitingList;\r\n    uint[] public donorWaitingList;\r\n    uint[] public donationSurgeryWaitingList;\r\n    uint[] public deliveryList;\r\n    uint[] public transplantWaitingList;\r\n\r\n    // ---------------- EVENTS ----------------\r\n    event PatientAdded(uint patientId);\r\n    event PatientVerified(uint patientId);\r\n    event DonorAdded(uint donorId);\r\n    event DonorVerified(uint donorId);\r\n    event MatchFound(uint donorId, uint patientId);\r\n    event DonationCompleted(uint donorId);\r\n    event OrganDelivered(uint organId, string status);\r\n    event TransplantCompleted(uint patientId);\r\n\r\n    // ---------------- ALGORITHM 1: PATIENT ADDITION ----------------\r\n    function addPatient(uint _id, uint _age, uint _bmi, string memory _bloodGroup, string memory _organNeeded)\r\n        public onlyRole(DOCTOR_ROLE)\r\n    {\r\n        patients[_id] = PatientInfo(_id, _age, _bmi, _bloodGroup, _organNeeded, false);\r\n        emit PatientAdded(_id);\r\n    }\r\n\r\n    function verifyPatient(uint _id) public onlyRole(TRANSPLANT_TEAM_ROLE) {\r\n        patients[_id].verified = true;\r\n        patientWaitingList.push(_id);\r\n        emit PatientVerified(_id);\r\n    }\r\n\r\n    // ---------------- ALGORITHM 2: DONOR ADDITION ----------------\r\n    function addDonor(uint _id, uint _age, uint _bmi, string memory _bloodGroup, string memory _organDonated)\r\n        public onlyRole(DOCTOR_ROLE)\r\n    {\r\n        donors[_id] = DonorInfo(_id, _age, _bmi, _bloodGroup, _organDonated, false);\r\n        emit DonorAdded(_id);\r\n    }\r\n\r\n    function verifyDonor(uint _id) public onlyRole(PROCUREMENT_TEAM_ROLE) {\r\n        donors[_id].verified = true;\r\n        donorWaitingList.push(_id);\r\n        emit DonorVerified(_id);\r\n    }\r\n\r\n    // ---------------- ALGORITHM 3: MATCHING PROCESS ----------------\r\n    function matchPatientDonor(uint donorId, uint minAge, uint maxAge, uint minBMI, uint maxBMI)\r\n        public onlyRole(MATCHING_ORGANIZER_ROLE)\r\n    {\r\n        DonorInfo memory d = donors[donorId];\r\n        require(d.verified, \"Donor not verified\");\r\n\r\n        for (uint i = 0; i < patientWaitingList.length; i++) {\r\n            uint pid = patientWaitingList[i];\r\n            PatientInfo memory p = patients[pid];\r\n\r\n            if (\r\n                keccak256(bytes(p.organNeeded)) == keccak256(bytes(d.organDonated)) &&\r\n                keccak256(bytes(p.bloodGroup)) == keccak256(bytes(d.bloodGroup)) &&\r\n                p.age >= minAge && p.age <= maxAge &&\r\n                p.bmi >= minBMI && p.bmi <= maxBMI\r\n            ) {\r\n                patientToDonor[pid] = donorId;\r\n                donationSurgeryWaitingList.push(donorId);\r\n                emit MatchFound(donorId, pid);\r\n                break;\r\n            }\r\n        }\r\n    }\r\n\r\n    // ---------------- ALGORITHM 4: DONATION SURGERY ----------------\r\n    function donationSurgery(uint donorId) public onlyRole(DONOR_SURGEON_ROLE) {\r\n        donationInfo[donorId] = DonationSurgeryInfo(donorId, block.timestamp, true);\r\n        organStatus[donorId] = OrganStatus(donorId, \"Ready\");\r\n        deliveryList.push(donorId);\r\n        emit DonationCompleted(donorId);\r\n    }\r\n\r\n    // ---------------- ALGORITHM 5: DELIVERY ----------------\r\n    function deliverOrgan(uint organId) public onlyRole(TRANSPORTER_ROLE) {\r\n        require(\r\n            keccak256(bytes(organStatus[organId].status)) != keccak256(bytes(\"Delivered\")),\r\n            \"Already delivered\"\r\n        );\r\n        organStatus[organId].status = \"Delivered\";\r\n        emit OrganDelivered(organId, \"Delivered\");\r\n    }\r\n\r\n    function confirmOrganReceived(uint organId, uint patientId) public onlyRole(TRANSPLANT_TEAM_ROLE) {\r\n        organStatus[organId].status = \"Received\";\r\n        transplantWaitingList.push(patientId);\r\n        emit OrganDelivered(organId, \"Received\");\r\n    }\r\n\r\n    // ---------------- ALGORITHM 6: TRANSPLANT SURGERY ----------------\r\n    function transplantSurgery(uint patientId) public onlyRole(TRANSPLANT_SURGEON_ROLE) {\r\n        transplantInfo[patientId] = TransplantSurgeryInfo(patientId, block.timestamp, true);\r\n        emit TransplantCompleted(patientId);\r\n    }\r\n\r\n    // ---------------- HELPERS ----------------\r\n    function getWaitingLists() public view returns (uint[] memory, uint[] memory) {\r\n        return (patientWaitingList, donorWaitingList);\r\n    }\r\n}\r\n",
  "sourcePath": "D:\\Allograft\\contracts\\AllograftManagement.sol",
  "compiler": {
    "name": "solc",
    "version": "0.8.19+commit.7dd6d404.Emscripten.clang"
  },
  "schemaVersion": "3.4.16",
  "updatedAt": "2025-11-16T05:44:17.110Z",
  "networkType": "ethereum",
  "devdoc": {
    "events": {
      "RoleAdminChanged(bytes32,bytes32,bytes32)": {
        "details": "Emitted when `newAdminRole` is set as ``role``'s admin role, replacing `previousAdminRole` `DEFAULT_ADMIN_ROLE` is the starting admin for all roles, despite {RoleAdminChanged} not being emitted signaling this. _Available since v3.1._"
      },
      "RoleGranted(bytes32,address,address)": {
        "details": "Emitted when `account` is granted `role`. `sender` is the account that originated the contract call, an admin role bearer except when using {AccessControl-_setupRole}."
      },
      "RoleRevoked(bytes32,address,address)": {
        "details": "Emitted when `account` is revoked `role`. `sender` is the account that originated the contract call:   - if using `revokeRole`, it is the admin role bearer   - if using `renounceRole`, it is the role bearer (i.e. `account`)"
      }
    },
    "kind": "dev",
    "methods": {
      "getRoleAdmin(bytes32)": {
        "details": "Returns the admin role that controls `role`. See {grantRole} and {revokeRole}. To change a role's admin, use {_setRoleAdmin}."
      },
      "grantRole(bytes32,address)": {
        "details": "Grants `role` to `account`. If `account` had not been already granted `role`, emits a {RoleGranted} event. Requirements: - the caller must have ``role``'s admin role. May emit a {RoleGranted} event."
      },
      "hasRole(bytes32,address)": {
        "details": "Returns `true` if `account` has been granted `role`."
      },
      "renounceRole(bytes32,address)": {
        "details": "Revokes `role` from the calling account. Roles are often managed via {grantRole} and {revokeRole}: this function's purpose is to provide a mechanism for accounts to lose their privileges if they are compromised (such as when a trusted device is misplaced). If the calling account had been revoked `role`, emits a {RoleRevoked} event. Requirements: - the caller must be `account`. May emit a {RoleRevoked} event."
      },
      "revokeRole(bytes32,address)": {
        "details": "Revokes `role` from `account`. If `account` had been granted `role`, emits a {RoleRevoked} event. Requirements: - the caller must have ``role``'s admin role. May emit a {RoleRevoked} event."
      },
      "supportsInterface(bytes4)": {
        "details": "See {IERC165-supportsInterface}."
      }
    },
    "version": 1
  },
  "userdoc": {
    "kind": "user",
    "methods": {},
    "version": 1
  }
}